{
  "_format": "hh-sol-artifact-1",
  "contractName": "WavePortal",
  "sourceName": "contracts/WavePortal.sol",
  "abi": [
    {
      "inputs": [],
      "stateMutability": "payable",
      "type": "constructor"
    },
    {
      "anonymous": false,
      "inputs": [
        {
          "indexed": true,
          "internalType": "address",
          "name": "from",
          "type": "address"
        },
        {
          "indexed": false,
          "internalType": "uint256",
          "name": "timestamp",
          "type": "uint256"
        },
        {
          "indexed": false,
          "internalType": "string",
          "name": "message",
          "type": "string"
        },
        {
          "indexed": false,
          "internalType": "string",
          "name": "name",
          "type": "string"
        },
        {
          "indexed": false,
          "internalType": "string",
          "name": "desc",
          "type": "string"
        }
      ],
      "name": "NewWave",
      "type": "event"
    },
    {
      "inputs": [],
      "name": "getAllWaves",
      "outputs": [
        {
          "components": [
            {
              "internalType": "address",
              "name": "waver",
              "type": "address"
            },
            {
              "internalType": "string",
              "name": "message",
              "type": "string"
            },
            {
              "internalType": "uint256",
              "name": "timestamp",
              "type": "uint256"
            },
            {
              "internalType": "string",
              "name": "name",
              "type": "string"
            },
            {
              "internalType": "string",
              "name": "desc",
              "type": "string"
            }
          ],
          "internalType": "struct WavePortal.Wave[]",
          "name": "",
          "type": "tuple[]"
        }
      ],
      "stateMutability": "view",
      "type": "function"
    },
    {
      "inputs": [],
      "name": "getTotalWaves",
      "outputs": [
        {
          "internalType": "uint256",
          "name": "",
          "type": "uint256"
        }
      ],
      "stateMutability": "view",
      "type": "function"
    },
    {
      "inputs": [
        {
          "internalType": "address",
          "name": "",
          "type": "address"
        }
      ],
      "name": "lastWavedAt",
      "outputs": [
        {
          "internalType": "uint256",
          "name": "",
          "type": "uint256"
        }
      ],
      "stateMutability": "view",
      "type": "function"
    },
    {
      "inputs": [
        {
          "internalType": "string",
          "name": "_message",
          "type": "string"
        },
        {
          "internalType": "string",
          "name": "_name",
          "type": "string"
        },
        {
          "internalType": "string",
          "name": "_desc",
          "type": "string"
        }
      ],
      "name": "wave",
      "outputs": [],
      "stateMutability": "nonpayable",
      "type": "function"
    }
  ],
  "bytecode": "0x60806040526200004f6040518060400160405280601981526020017f57652068617665206265656e20636f6e737472756374656421000000000000008152506200007760201b620007751760201c565b606444426200005f9190620001c4565b6200006b919062000261565b60018190555062000308565b62000117816040516024016200008e919062000184565b6040516020818303038152906040527f41304fac000000000000000000000000000000000000000000000000000000007bffffffffffffffffffffffffffffffffffffffffffffffffffffffff19166020820180517bffffffffffffffffffffffffffffffffffffffffffffffffffffffff83818316178352505050506200011a60201b60201c565b50565b60008151905060006a636f6e736f6c652e6c6f679050602083016000808483855afa5050505050565b60006200015082620001a8565b6200015c8185620001b3565b93506200016e8185602086016200022b565b6200017981620002f7565b840191505092915050565b60006020820190508181036000830152620001a0818462000143565b905092915050565b600081519050919050565b600082825260208201905092915050565b6000620001d18262000221565b9150620001de8362000221565b9250827fffffffffffffffffffffffffffffffffffffffffffffffffffffffffffffffff0382111562000216576200021562000299565b5b828201905092915050565b6000819050919050565b60005b838110156200024b5780820151818401526020810190506200022e565b838111156200025b576000848401525b50505050565b60006200026e8262000221565b91506200027b8362000221565b9250826200028e576200028d620002c8565b5b828206905092915050565b7f4e487b7100000000000000000000000000000000000000000000000000000000600052601160045260246000fd5b7f4e487b7100000000000000000000000000000000000000000000000000000000600052601260045260246000fd5b6000601f19601f8301169050919050565b61129180620003186000396000f3fe608060405234801561001057600080fd5b506004361061004c5760003560e01c8063689a3257146100515780639a2cdc081461006d578063a42a46631461008b578063bd43a908146100bb575b600080fd5b61006b60048036038101906100669190610a1c565b6100d9565b005b6100756104df565b6040516100829190610de3565b60405180910390f35b6100a560048036038101906100a091906109f3565b6104e8565b6040516100b29190610de3565b60405180910390f35b6100c3610500565b6040516100d09190610d0f565b60405180910390f35b42610384600360003373ffffffffffffffffffffffffffffffffffffffff1673ffffffffffffffffffffffffffffffffffffffff168152602001908152602001600020546101279190610f1f565b10610167576040517f08c379a000000000000000000000000000000000000000000000000000000000815260040161015e90610da3565b60405180910390fd5b42600360003373ffffffffffffffffffffffffffffffffffffffff1673ffffffffffffffffffffffffffffffffffffffff1681526020019081526020016000208190555060016000808282546101bd9190610f1f565b925050819055506102036040518060400160405280600d81526020017f25732068617320776176656421000000000000000000000000000000000000008152503361080e565b60026040518060a001604052803373ffffffffffffffffffffffffffffffffffffffff16815260200185815260200142815260200184815260200183815250908060018154018082558091505060019003906000526020600020906005020160009091909190915060008201518160000160006101000a81548173ffffffffffffffffffffffffffffffffffffffff021916908373ffffffffffffffffffffffffffffffffffffffff16021790555060208201518160010190805190602001906102ce9291906108d3565b506040820151816002015560608201518160030190805190602001906102f59291906108d3565b5060808201518160040190805190602001906103129291906108d3565b505050606460015442446103269190610f1f565b6103309190610f1f565b61033a9190611056565b600181905550603260015411610486576103896040518060400160405280600781526020017f257320776f6e21000000000000000000000000000000000000000000000000008152503361080e565b6000655af3107a40009050478111156103d7576040517f08c379a00000000000000000000000000000000000000000000000000000000081526004016103ce90610dc3565b60405180910390fd5b60003373ffffffffffffffffffffffffffffffffffffffff16826040516103fd90610cfa565b60006040518083038185875af1925050503d806000811461043a576040519150601f19603f3d011682016040523d82523d6000602084013e61043f565b606091505b5050905080610483576040517f08c379a000000000000000000000000000000000000000000000000000000000815260040161047a90610d83565b60405180910390fd5b50505b3373ffffffffffffffffffffffffffffffffffffffff167f4346ad46b072a60ecf544339308b4568307c2137cd603e37c9b592e773e56909428585856040516104d29493929190610dfe565b60405180910390a2505050565b60008054905090565b60036020528060005260406000206000915090505481565b60606002805480602002602001604051908101604052809291908181526020016000905b8282101561076c57838290600052602060002090600502016040518060a00160405290816000820160009054906101000a900473ffffffffffffffffffffffffffffffffffffffff1673ffffffffffffffffffffffffffffffffffffffff1673ffffffffffffffffffffffffffffffffffffffff1681526020016001820180546105ad90610ff3565b80601f01602080910402602001604051908101604052809291908181526020018280546105d990610ff3565b80156106265780601f106105fb57610100808354040283529160200191610626565b820191906000526020600020905b81548152906001019060200180831161060957829003601f168201915b505050505081526020016002820154815260200160038201805461064990610ff3565b80601f016020809104026020016040519081016040528092919081815260200182805461067590610ff3565b80156106c25780601f10610697576101008083540402835291602001916106c2565b820191906000526020600020905b8154815290600101906020018083116106a557829003601f168201915b505050505081526020016004820180546106db90610ff3565b80601f016020809104026020016040519081016040528092919081815260200182805461070790610ff3565b80156107545780601f1061072957610100808354040283529160200191610754565b820191906000526020600020905b81548152906001019060200180831161073757829003601f168201915b50505050508152505081526020019060010190610524565b50505050905090565b61080b816040516024016107899190610d31565b6040516020818303038152906040527f41304fac000000000000000000000000000000000000000000000000000000007bffffffffffffffffffffffffffffffffffffffffffffffffffffffff19166020820180517bffffffffffffffffffffffffffffffffffffffffffffffffffffffff83818316178352505050506108aa565b50565b6108a68282604051602401610824929190610d53565b6040516020818303038152906040527f319af333000000000000000000000000000000000000000000000000000000007bffffffffffffffffffffffffffffffffffffffffffffffffffffffff19166020820180517bffffffffffffffffffffffffffffffffffffffffffffffffffffffff83818316178352505050506108aa565b5050565b60008151905060006a636f6e736f6c652e6c6f679050602083016000808483855afa5050505050565b8280546108df90610ff3565b90600052602060002090601f0160209004810192826109015760008555610948565b82601f1061091a57805160ff1916838001178555610948565b82800160010185558215610948579182015b8281111561094757825182559160200191906001019061092c565b5b5090506109559190610959565b5090565b5b8082111561097257600081600090555060010161095a565b5090565b600061098961098484610e7d565b610e58565b9050828152602081018484840111156109a157600080fd5b6109ac848285610fb1565b509392505050565b6000813590506109c381611244565b92915050565b600082601f8301126109da57600080fd5b81356109ea848260208601610976565b91505092915050565b600060208284031215610a0557600080fd5b6000610a13848285016109b4565b91505092915050565b600080600060608486031215610a3157600080fd5b600084013567ffffffffffffffff811115610a4b57600080fd5b610a57868287016109c9565b935050602084013567ffffffffffffffff811115610a7457600080fd5b610a80868287016109c9565b925050604084013567ffffffffffffffff811115610a9d57600080fd5b610aa9868287016109c9565b9150509250925092565b6000610abf8383610c58565b905092915050565b610ad081610f75565b82525050565b610adf81610f75565b82525050565b6000610af082610ebe565b610afa8185610ee1565b935083602082028501610b0c85610eae565b8060005b85811015610b485784840389528151610b298582610ab3565b9450610b3483610ed4565b925060208a01995050600181019050610b10565b50829750879550505050505092915050565b6000610b6582610ec9565b610b6f8185610efd565b9350610b7f818560208601610fc0565b610b8881611143565b840191505092915050565b6000610b9e82610ec9565b610ba88185610f0e565b9350610bb8818560208601610fc0565b610bc181611143565b840191505092915050565b6000610bd9602783610f0e565b9150610be482611154565b604082019050919050565b6000610bfc602983610f0e565b9150610c07826111a3565b604082019050919050565b6000610c1f603583610f0e565b9150610c2a826111f2565b604082019050919050565b6000610c42600083610ef2565b9150610c4d82611241565b600082019050919050565b600060a083016000830151610c706000860182610ac7565b5060208301518482036020860152610c888282610b5a565b9150506040830151610c9d6040860182610cdc565b5060608301518482036060860152610cb58282610b5a565b91505060808301518482036080860152610ccf8282610b5a565b9150508091505092915050565b610ce581610fa7565b82525050565b610cf481610fa7565b82525050565b6000610d0582610c35565b9150819050919050565b60006020820190508181036000830152610d298184610ae5565b905092915050565b60006020820190508181036000830152610d4b8184610b93565b905092915050565b60006040820190508181036000830152610d6d8185610b93565b9050610d7c6020830184610ad6565b9392505050565b60006020820190508181036000830152610d9c81610bcc565b9050919050565b60006020820190508181036000830152610dbc81610bef565b9050919050565b60006020820190508181036000830152610ddc81610c12565b9050919050565b6000602082019050610df86000830184610ceb565b92915050565b6000608082019050610e136000830187610ceb565b8181036020830152610e258186610b93565b90508181036040830152610e398185610b93565b90508181036060830152610e4d8184610b93565b905095945050505050565b6000610e62610e73565b9050610e6e8282611025565b919050565b6000604051905090565b600067ffffffffffffffff821115610e9857610e97611114565b5b610ea182611143565b9050602081019050919050565b6000819050602082019050919050565b600081519050919050565b600081519050919050565b6000602082019050919050565b600082825260208201905092915050565b600081905092915050565b600082825260208201905092915050565b600082825260208201905092915050565b6000610f2a82610fa7565b9150610f3583610fa7565b9250827fffffffffffffffffffffffffffffffffffffffffffffffffffffffffffffffff03821115610f6a57610f69611087565b5b828201905092915050565b6000610f8082610f87565b9050919050565b600073ffffffffffffffffffffffffffffffffffffffff82169050919050565b6000819050919050565b82818337600083830152505050565b60005b83811015610fde578082015181840152602081019050610fc3565b83811115610fed576000848401525b50505050565b6000600282049050600182168061100b57607f821691505b6020821081141561101f5761101e6110e5565b5b50919050565b61102e82611143565b810181811067ffffffffffffffff8211171561104d5761104c611114565b5b80604052505050565b600061106182610fa7565b915061106c83610fa7565b92508261107c5761107b6110b6565b5b828206905092915050565b7f4e487b7100000000000000000000000000000000000000000000000000000000600052601160045260246000fd5b7f4e487b7100000000000000000000000000000000000000000000000000000000600052601260045260246000fd5b7f4e487b7100000000000000000000000000000000000000000000000000000000600052602260045260246000fd5b7f4e487b7100000000000000000000000000000000000000000000000000000000600052604160045260246000fd5b6000601f19601f8301169050919050565b7f4661696c656420746f207769746864726177206d6f6e65792066726f6d20636f60008201527f6e74726163742e00000000000000000000000000000000000000000000000000602082015250565b7f4d7573742077616974203330207365636f6e6473206265666f7265207761766960008201527f6e6720616761696e2e0000000000000000000000000000000000000000000000602082015250565b7f547279696e6720746f207769746864726177206d6f7265206d6f6e657920746860008201527f616e207468657920636f6e7472616374206861732e0000000000000000000000602082015250565b50565b61124d81610f75565b811461125857600080fd5b5056fea26469706673582212202effde5728e0079f1e4ce9d8a105e60adaa20062c550774441ae88094167763164736f6c63430008040033",
  "linkReferences": {},
  "deployedLinkReferences": {}
}